:020000040800F2
:10000000000002206D000008B0000008B1000008E8
:10001000B0000008B0000008B000000800000000B8
:10002000000000000000000000000000B000000818
:10003000B000000800000000B0000008F90200084D
:10004000B0000008B0000008B0000008B0000008D0
:10005000B0000008B0000008B1000008B0000008BF
:0C006000B0000008B0000008B00000086C
:10006C00002103E00A4B5B584350043109480A4B0A
:10007C0042189A42F6D3094A02E0002342F8043BA4
:10008C00074B9A42F9D300F00DF900F047F870478E
:10009C008C0400080000002000000020000000205C
:1000AC0004000020FEE700000D4A0E4BD2F8301879
:1000BC0041F00801C2F83018D2F8301841F00801AC
:1000CC00C2F83018D3F8002C22F07F42C3F8002C71
:1000DC00D3F8002C42F0AA42C3F8002C704700BFA2
:1000EC000030024000000240044A0123D2F8141CE4
:1000FC0003FA00F00843C2F8140C704700000240E9
:10010C0005490122D1F8143C02FA00F023EA00035D
:10011C00C1F8143C704700BF0000024080B5FFF7E7
:10012C00C3FF00F0CDF88B2000F0F2F85348DFF855
:10013C004C81534F534E544D544C00F01BF95048C6
:10014C0000F018F94F4800F015F90F2000F022F9D3
:10015C004D4800F00FF94E4800F00CF94B4800F0F8
:10016C0009F90C20FFF7C0FF404600F003F93846B0
:10017C0000F000F9304600F0FDF8152000F00AF907
:10018C00284600F0F7F8434800F0F4F8204600F059
:10019C00F1F84FF4FA7000F0B1F80C20FFF7B0FF53
:1001AC004FF4FA7000F0AAF80D20FFF79DFF4046BF
:1001BC0000F0E0F8384600F0DDF8304600F0DAF8F0
:1001CC001B2000F0E7F8284600F0D4F8324800F085
:1001DC00D1F8204600F0CEF84FF4FA7000F08EF80B
:1001EC000D20FFF78DFF4FF4FA7000F087F80E200A
:1001FC00FFF77AFF404600F0BDF8384600F0BAF839
:10020C00304600F0B7F8212000F0C4F8284600F082
:10021C00B1F8224800F0AEF8204600F0ABF84FF4ED
:10022C00FA7000F06BF80E20FFF76AFF4FF4FA70CB
:10023C0000F064F80F20FFF757FF404600F09AF8E3
:10024C00384600F097F8304600F094F8272000F07C
:10025C00A1F8284600F08EF8114800F08BF82046E3
:10026C0000F088F84FF4FA7000F048F80F20FFF710
:10027C0047FF4FF4FA7000F041F872E728040008C9
:10028C00340400084004000844040008600400081A
:10029C004804000864040008700400087C0400088A
:1002AC00840400084FF0E0234FF00061D3F8882D50
:1002BC0042F47002C3F8882DC3F8081D704700BFC4
:1002CC004FF0E023002210B4C3F8342FD3F8881D6C
:1002DC0043F67F6441F470010720C3F8881D1A614E
:1002EC005C619A615DF8044B18617047024A1368AF
:1002FC0001331360704700BF00000020034A1168EF
:10030C0013685B1A8342FBD3704700BF00000020C8
:10031C00164A174B10B4D2F8304844F00104C2F816
:10032C003048D2F8404844F40034C2F840481A68C7
:10033C0022F0F0021A601A6842F0A0021A601A6ADF
:10034C0022F47F421A621A6A4FF0402142F4EE42C4
:10035C001A62002442F20C03C1F80C44C1F80804E0
:10036C005DF8044BC1F80C34704700BF00300240FC
:10037C0000000240017859B14FF04022D2F800340D
:10038C001B06FBD5C2F8041410F8011F0029F5D187
:10039C00704700BF00280ADB13D14FF04022D2F87F
:1003AC0000341906FBD53023C2F8043470474FF0E3
:1003BC004022D2F800341B06FBD52D23C2F804349E
:1003CC00404230B4144D84B00DF1040C0021A5FB57
:1003DC000023DB0803EB8302A0EB42003030C4B2F5
:1003EC000A460CF8014B01311846002BEFD1013AAB
:1003FC0001AB9918581E4FF04022D2F800341B065E
:10040C00FBD58842C2F8044402D011F80149F4E744
:10041C0004B030BC704700BFCDCCCCCC5B494E4651
:10042C004F5D205B000000007372632F6D61696E7D
:10043C002E6300003A0000005D20000048656C6CE3
:10044C006F2066726F6D206D61696E28766F6964BE
:10045C00290000000D0A0000475245454E204F4E22
:10046C00000000004F52414E4745204F4E00000007
:10047C00524544204F4E0000424C5545204F4E00F3
:040000050800006D82
:00000001FF
